:100000000C94B4010C94D1010C94D1010C94D10145
:100010000C94D1010C94D1010C94D1010C94D10118
:100020000C94D1010C94D1010C94D1010C94D10108
:100030000C94D1010C94D1010C94D1010C94D101F8
:100040000C94D1010C94D1010C94D1010C94D101E8
:100050000C94D1010C94D1010C94D1010C94D101D8
:100060000C94D1010C94D1010C94D1010C94D101C8
:10007000000000000000000000065F5F06000000B6
:100080000007070007070000147F7F147F7F14001C
:10009000242E6B6B3A120000466630180C66620024
:1000A000307A4F5D377A48000407030000000000F3
:1000B000001C3E63410000000041633E1C00000044
:1000C000082A3E1C1C3E2A0808083E3E080800007C
:1000D00000A0E06000000000080808080808000010
:1000E00000006060000000006030180C0603010092
:1000F0003E7F594D7F3E000042427F7F40400000DE
:10010000627359496F660000226349497F360000D7
:10011000181C16137F7F1000276745457D390000A6
:100120003C7E4B4979300000036371190F070000D2
:10013000367F49497F360000064F49693F1E00005F
:1001400000006C6C0000000000A0EC6C00000000DF
:10015000081C366341000000141414141414000029
:10016000004163361C080000020351590F060000CD
:100170003E7F415D5D1F1E007C7E13137E7C000070
:10018000417F7F49497F36001C3E63414163220025
:10019000417F7F41637F1C00417F7F495D41630058
:1001A000417F7F491D0103001C3E63415173720072
:1001B0007F7F08087F7F000000417F7F41000000B3
:1001C000307040417F3F0100417F7F081C77630012
:1001D000417F7F41406070007F7F060C067F7F007B
:1001E0007F7F060C187F7F001C3E6341633E1C002E
:1001F000417F7F49090F06001E3F21717F5E00008D
:10020000417F7F19396F460026674D597B320000C8
:1002100003417F7F410300007F7F40407F7F0000DC
:100220001F3F60603F1F00007F7F3018307F7F00DE
:1002300063771C081C776300074F78784F0700002E
:100240006773594D47637100007F7F414100000093
:100250000103060C183060000041417F7F00000060
:10026000080C0603060C0800808080808080808057
:100270000000030704000000207454543C78400040
:10028000413F7F44447C3800387C44446C28000063
:10029000307848493F7F4000387C54545C18000057
:1002A000487E7F490302000098BCA4A4F87C0400A7
:1002B000417F7F08047C780000447D7D4000000081
:1002C00040C484FD7D000000417F7F10386C4400F5
:1002D00000417F7F400000007C7C0C180C7C780083
:1002E0007C7C04047C780000387C44447C3800002A
:1002F00084FCF8A4243C1800183C24A4F8FC8400D6
:10030000447C78441C180000485C54547424000059
:1003100000043E7F442400003C7C40403C7C400084
:100320001C3C60603C1C00003C7C6030607C3C00FD
:10033000446C3810386C44009CBCA0A0FC7C0000CD
:100340004C64745C4C64000008083E774141000036
:1003500000000077770000004141773E0808000068
:10036000020301030203010011241FBECFEFD4E0FA
:10037000DEBFCDBF13E0A0E0B1E0EAEDF4E202C0E1
:1003800005900D92AE31B107D9F723E0AEE1B3E0AD
:1003900001C01D92A434B207E1F70E94D3010C946E
:1003A0006B120C940000CF93DF93CDB7DEB72B9781
:1003B0000FB6F894DEBF0FBECDBF8FE190E00E9474
:1003C000B8020E9423020E94C5020E94D2040E9429
:1003D0008A030E94CD080E94340940E062E479EB70
:1003E00087E090E00E947B0A2FEF8FEF9EE0215084
:1003F00080409040E1F700C000000E943805FE01F7
:1004000031968BE0DF011D928A95E9F784E190E057
:100410009A83898385E08B870AE011E01F921F92FF
:100420001F930F930E94AE0ECE0101960E94AB0B5C
:100430008FEF9FE20197F1F700C000000F900F903F
:100440000F900F90EBCF85B7806885BF80E280BFAB
:100450000895CF92DF92EF92FF920F931F93CF9365
:10046000DF9382E291E00E94CB0E0E94530E7C014A
:100470000E94580EC12CD12C00E010E0C8E3D1E05E
:100480000E94530EF601F85E808320812817A9F0A0
:1004900099279F938F931F922F93DF92CF92DF9391
:1004A000CF930E94AE0E0F5F1F4F8DB79EB7089679
:1004B0000FB6F8949EBF0FBE8DBF9FEFC91AD90A21
:1004C000C11488E0D806E1F6C7010E94580EC0E0CA
:1004D000D0E0E12CF12C0F2EF1E7CF2EF1E0DF2E52
:1004E000F02D0E94530EFE01F85E20812817B1F016
:1004F00099279F938F931F922F93DF93CF93DF9230
:10050000CF920E94AE0E9FEFE91AF90A8DB79EB7FF
:1005100008960FB6F8949EBF0FBE8DBF2196C115E9
:1005200098E0D907F1F6FF92EF921F930F938EEAAE
:1005300091E09F938F930E94AE0E0F900F900F90BB
:100540000F900F900F90DF91CF911F910F91FF901F
:10055000EF90DF90CF9008955D9BFECF8CB908950A
:100560005F9BFECF8BB18AB18CB18FEF9FEF089567
:1005700090BD89B988E18AB98EE880BD60EB72E0F0
:100580008CEA92E00E94630E08958D9A8EB5886081
:100590008EBD8FB58E7F8FBD8FB58D7F8FBD8FB593
:1005A00080648FBD1BBC1ABC8EB581608EBD089562
:1005B000CF92DF92EF92FF92CF93DF93E0E0F4E1EE
:1005C00081E08083808380838083C091200342E028
:1005D00050E0A0E0B4E1E1E2F3E033E862E070E093
:1005E00002C04F5F5F4FCA0101972C918230910585
:1005F00009F446C018F4019749F081C08330910591
:1006000009F478C0049709F477C079C0C11103C018
:1006100082E8820F8783D781822F90E08D1B91091A
:10062000D7FD93958F379105A4F0822F8695839FF0
:10063000812D11248295869587706B01C81AD10887
:100640000D2C000CEE08FF08C486D586E686F786DA
:1006500011C0C22EC694C39EC12C1124C694C69448
:10066000C694C694C694D12CE12CF12CC486D586B0
:10067000E686F7868485D89F201911242183B1CF7F
:10068000C11103C082E8820F8683D681822F90E059
:100690008D1B9109D7FD93958F379105A4F0822F7B
:1006A0008695839F812D11248295869587706B0195
:1006B000C81AD1080D2C000CEE08FF08C086D186A0
:1006C000E286F38611C0C22EC694C39EC12C1124AB
:1006D000C694C694C694C694C694D12CE12CF12C31
:1006E000C086D186E286F3868085D89F20191124A2
:1006F000208377CF238375CF2093230304C0453015
:1007000051050CF46ECFDF91CF91FF90EF90DF9009
:10071000CF900895B898C09AB998BA980E94D80214
:1007200081E0809320030895EF92FF920F931F932F
:10073000CF93DF93C1E2D3E01981288130E02F57B6
:10074000310904E6029FC001039F900D11240F2E72
:10075000FFE7EF2EF12CF02DB7010E94D50B072EED
:10076000000C880B990B0E94350C0E94990C0E947A
:10077000FD0B6C83212F30E02F573109029FC00100
:10078000039F900D1124B7010E94D50B072E000C7A
:10079000880B990B0E94350C0E94990C0E94FD0B4E
:1007A0006D8387E092E09F938F930E94AE0E8C81C1
:1007B000282F082E000C330B3F938F938EE092E08E
:1007C0009F938F930E94AE0E8D81282F082E000CD0
:1007D000330B3F938F938BE192E09F938F930E9413
:1007E000AE0E8B811F928F9387E292E09F938F933F
:1007F0000E94AE0E8A811F928F9388E392E09F93AE
:100800008F930E94AE0E2C81E22F022E000CFF0B64
:100810006D81A62F062E000CBB0BCD01BB2324F44B
:10082000882799278A1B9B0B31E04DB75EB74E5E38
:100830005F4F0FB6F8945EBF0FBE4DBF22330CF46E
:1008400030E0332339F031E08E179F070CF030E0B1
:10085000311131C0AF01FF2324F4442755274E1B2B
:100860005F0B31E02F3C0CF030E0332339F021E016
:10087000841795070CF020E0211120C021E062339D
:100880000CF420E0222339F021E04A175B070CF03A
:1008900020E0211116C021E06F3C0CF020E0222363
:1008A00039F021E0481759070CF020E021110CC065
:1008B00082E090E00BC081E090E008C080E090E032
:1008C00005C083E090E002C084E090E0DF91CF912A
:1008D0001F910F91FF90EF9008958230910579F06C
:1008E00028F40097C1F0019739F012C083309105C8
:1008F00049F0049751F00CC08DE492E0089583E52F
:1009000092E008958BE592E008958EE592E00895D7
:1009100083E692E0089588E492E00895019721F437
:1009200086B3817090E0089581E090E0089586B3E9
:10093000827090E008958F3F2FEF920721F4B199D4
:1009400002C0FC01128208958093001008958093E4
:1009500000120895282F30E03093320320933103A2
:100960008055809300100895982F9F70E0E0F0E18B
:100970009083982F92959F70905F908390E09093D2
:100980003403809333030895CF93C62F0E94AA04A3
:100990008C2F0E94B404CF91089560E080E00E9403
:1009A000C4040895E0E0F0E18EEA808381EA808368
:1009B0008AED808382E1808388EC808388EA80836B
:1009C0008FE3808385ED808380E8808381E8808366
:1009D00081E4808389ED808381E2808380E280836B
:1009E00080E180838BED808380E380838DEA808348
:1009F000108284EA808386EA80838FEA80830E9463
:100A0000CD040895FF920F931F93CF93DF93D82FB8
:100A1000F62E60E00E94C404C0E000E012E1F8019C
:100A2000F0826C2F8D2F0E94C404F0E1FA95F1F74B
:100A300000C0CF5FC13899F760E08D2F0E94C404D9
:100A4000DF91CF911F910F91FF90089560E00E9478
:100A500002050895CF930E94CD04C0E08C2F0E9420
:100A60002605CF5FC930D1F70E94CD04CF910895FC
:100A7000CF930E94CD04C0E06FEF8C2F0E9402053F
:100A8000CF5FC930C9F70E94CD04CF9108958091FE
:100A900033039091340380389105ACF0E1E3F3E047
:100AA000828193818058910993838283808191818F
:100AB00001969183808380819181089724F0109220
:100AC0003203109231030895CF92DF92EF92FF929A
:100AD0000F931F93CF93DF93082FE1E3F3E062813D
:100AE0007381808191810E94C404005210E0E8016A
:100AF000CC0FDD1FCC0FDD1FCC0FDD1FC059DF4F2A
:100B0000000F111F000F111F000F111F08581F4F5A
:100B10000F2EC12CF2E1DF2EF02D0F2EF1E3EF2E80
:100B2000F3E0FF2EF02DFE0185919491F601808374
:100B3000F701828193810896938382830E944705FF
:100B40002196C017D10779F7DF91CF911F910F91AF
:100B5000FF90EF90DF90CF9008951F93CF93DF9396
:100B600010E0C0E0D2E1812F0E94AA0480E0188248
:100B70008F5F8038E1F71F5F1830A9F70E94CD041E
:100B8000DF91CF911F910895EF92FF920F931F93E2
:100B9000CF93DF93EC01E1E3F3E062817381808125
:100BA00091810E94C40428812223D1F17E018FEF1C
:100BB000E81AF80AC0E0D2E101E313E0205230E085
:100BC000F901EE0FFF1FEE0FFF1FEE0FFF1FE059A1
:100BD000FF4F220F331F220F331F220F331F2858BE
:100BE0003F4F849188833196E217F307D1F7F801DC
:100BF0008281938108969383828382819381813855
:100C000091053CF01382128280819181019691833B
:100C100080830E944705F70121917F012111CECFEA
:100C2000DF91CF911F910F91FF90EF9008950F9357
:100C30001F93CF93DF93CDB7DEB7A0970FB6F8948D
:100C4000DEBF0FBECDBF862F062E000C990B9F93E3
:100C50006F938BE692E09F938F938E010F5F1F4FF0
:100C60001F930F930E94FB0EC8010E94C4050F90B2
:100C70000F900F900F900F900F90A0960FB6F894D2
:100C8000DEBF0FBECDBFDF91CF911F910F910895B1
:100C90008F929F92AF92BF92CF92DF92EF92FF928C
:100CA0000F931F93CF93DF935C01862E972EC42E54
:100CB000D52E89010E942A0588E090E00E94E60C6A
:100CC000EC01892B09F453C0B982A8827501EE0C9E
:100CD000FF1CC7010E94E60C9B838A83892B21F0AD
:100CE0001A141B043CF016C0CE010E947E0D80E059
:100CF00090E03FC0A82DB92D80E090E02D913D916E
:100D0000EA81FB81E80FF91F318320830296E81600
:100D1000F906A1F77801EE0CFF1CC7010E94E60C52
:100D20009D838C83892B21F0101611065CF01AC06C
:100D30008A819B810E947E0DCE010E947E0D80E003
:100D400090E017C0AC2DBD2D80E090E02D913D913D
:100D5000EC81FD81E80FF91F318320830296E816AC
:100D6000F906A1F71F830E838C2F9D2F02C080E010
:100D700090E0DF91CF911F910F91FF90EF90DF9066
:100D8000CF90BF90AF909F908F9008950F931F9337
:100D9000CF93DF93CDB7DEB728970FB6F894DEBFB9
:100DA0000FBECDBF8C0182E090E09A83898325E05D
:100DB00030E03C832B8321E030E03E832D83988715
:100DC0008F8322E030E0AE014B5F5F4FBE016F5F6B
:100DD0007F4F0E944806F801918380836FEF80E087
:100DE0000E9402056AE082E00E94C4048DE892E05D
:100DF0000E94C4056AE085E00E94C4048BE792E08B
:100E00000E94C4056FEF87E00E940205109238032C
:100E10001092370328960FB6F894DEBF0FBECDBFF1
:100E2000DF91CF911F910F9108950F931F93CF934F
:100E3000DF93CDB7DEB728970FB6F894DEBF0FBEAD
:100E4000CDBF8C0182E090E09A83898385E090E0B9
:100E50009C838B8383E090E09E838D8318861F8222
:100E600022E030E0AE014B5F5F4FBE016F5F7F4F0E
:100E700082E090E00E944806F801918380836FEF42
:100E800080E00E9402056AE082E00E94C40487E8D4
:100E900092E00E94C4056AE085E00E94C40486E9ED
:100EA00092E00E94C4056FEF87E00E94020581E096
:100EB00090E0909338038093370328960FB6F89408
:100EC000DEBF0FBECDBFDF91CF911F910F9108956F
:100ED0000F931F93CF93DF9300D000D0CDB7DEB731
:100EE0008C0187E090E09A8389831C821B8221E039
:100EF00030E0AE014D5F5F4FBE016F5F7F4F81E01D
:100F000090E00E944806F801918380836AE080E0C7
:100F10000E94C4048BE792E00E94C4056AE081E06D
:100F20000E94C4048DE992E00E94C4056AE082E058
:100F30000E94C4048DE992E00E94C4056AE083E047
:100F40000E94C4048DE992E00E94C4056AE084E036
:100F50000E94C4048DE992E00E94C4056AE085E025
:100F60000E94C4048DE992E00E94C4056AE086E014
:100F70000E94C4048DE992E00E94C4056AE087E003
:100F80000E94C40486E992E00E94C40582E090E0D9
:100F900090933803809337030F900F900F900F902A
:100FA000DF91CF911F910F910895CF93DF93C1E30C
:100FB000D3E08881998160E00E94C4048FEF0E9491
:100FC000A7048EE70E94A7048CE30E94A70488E18F
:100FD0000E94A7048881998160E00E94C404DF9187
:100FE000CF910895CF93DF93C1E3D3E088819981B6
:100FF00060E00E94C40480E00E94A70480E00E9498
:10100000A70480E00E94A70480E00E94A7048881D2
:10101000998160E00E94C404DF91CF9108950F93FD
:101020001F93CF93DF93CDB7DEB728970FB6F89411
:10103000DEBF0FBECDBF09831A832B833C834D8354
:101040005E836F83788729813A8183309105E9F047
:101050008430910521F0019709F065C02BC0809183
:10106000350390913603215031098217930729F4F3
:10107000109236031092350356C0E5E3F3E0808109
:1010800091810196918380834EC080913503909128
:101090003603892B39F421503109309336032093DC
:1010A000350341C0E5E3F3E08081918101979183AD
:1010B000808339C08D819E81E0913503F0913603A4
:1010C000EE0FFF1FE80FF91F20813181232B29F438
:1010D0008EE193E00E94C60622C0E0913503F091B4
:1010E0003603EE0FFF1FE80FF91F208131812130F9
:1010F000310529F48EE193E00E94150710C0E091BC
:101100003503F0913603EE0FFF1FE80FF91F8081C2
:101110009181029721F48EE193E00E94680710927A
:101120003603109235030E94F207E0913503F091E7
:101130003603EE0FFF1F8B819C81E80FF91F60E0E3
:1011400080810E94C4040E94D50728960FB6F894A7
:10115000DEBF0FBECDBFDF91CF911F910F910895DC
:10116000CF93DF93009781F0EC018A819B810097F8
:1011700011F00E947E0D8C819D81009711F00E94DC
:101180007E0DCE010E947E0DDF91CF910895C49A0D
:101190000895C4980895C598089580EB87BB81E5AC
:1011A0008DB90E94C70808958FB9779BFECF089527
:1011B0008FEF8FB9779BFECF8FB108950E94C9083A
:1011C00080EC0E94D4080E94C7080895CF93C82FCE
:1011D0000E94C90883E00E94D4088C2F0E94D40882
:1011E0000E94D808C82F0E94C7088C2FCF9108955D
:1011F000CF93DF93D82FC62F0E94C90882E00E94A8
:10120000D4088D2F0E94D4088C2F0E94D4080E94ED
:10121000C708DF91CF910895CF930E94C90880EA53
:101220000E94D4080E94D808C82F0E94C7088C2F9B
:10123000CF9108951F93CF93DF93182FD62FC42FEC
:101240000E94C90885E00E94D408812F0E94D4081A
:101250008D2F0E94D4088C2F0E94D4080E94C708AA
:10126000DF91CF911F9108950E94CD080E94DE0862
:101270008CEC94E00197F1F700C000008EE00E9432
:10128000E608982F907E903861F01F928F938FE937
:1012900092E09F938F930E94AE0E0F900F900F904D
:1012A0000F900895482F60EE8FE30E941A09089569
:1012B000CF92DF92FF920F931F93CF93DF938C0116
:1012C0008CE20E94E60880FF3EC081E60E94E608AC
:1012D000C82F82E60E94E6082C2F30E0220F331F31
:1012E000220F331F220F331F829586958770282B7C
:1012F000F8013183208385E60E94E6088F70F801AB
:1013000082878823C1F06801F2E0CF0ED11C0F2E36
:10131000F6E6FF2EF02DC0E0D0E08F2D0E94E6080B
:10132000F60181936F012196F394F801828590E094
:10133000C817D90794F340E061E08CE20E941A09D3
:1013400081E090E042C081FF3EC081E70E94E60854
:10135000C82F82E70E94E6082C2F30E0220F331FAF
:10136000220F331F220F331F829586958770282BFB
:10137000F8013183208385E70E94E6088F70F80129
:1013800082878823C1F06801F2E0CF0ED11C0F2EB6
:10139000F6E7FF2EF02DC0E0D0E08F2D0E94E6088A
:1013A000F60181936F012196F394F801828590E014
:1013B000C817D90794F340E062E08CE20E941A0952
:1013C00082E090E002C080E090E0DF91CF911F9139
:1013D0000F91FF90DF90CF900895CF92DF92EF9220
:1013E000FF920F931F93CF93DF93EC010E94580954
:1013F00081309105D9F58A851F928F9389818F93CA
:1014000088818F9385EB92E09F938F930E94AE0E1D
:101410008A850F900F900F900F900F900F90882358
:1014200001F16E0182E0C80ED11C00E010E00F2E29
:10143000F5EEEF2EF2E0FF2EF02DF60181916F0117
:101440001F928F93FF92EF920E94AE0E0F5F1F4F7D
:101450008A8590E00F900F900F900F900817190752
:1014600064F38AE090E00E94C40E3CC00297D1F57C
:101470008A851F928F9389818F9388818F938BEEBA
:1014800092E09F938F930E94AE0E8A850F900F90EB
:101490000F900F900F900F90882301F16E01F2E0F2
:1014A000CF0ED11C00E010E00F2EF5EEEF2EF2E093
:1014B000FF2EF02DF60181916F011F928F93FF9205
:1014C000EF920E94AE0E0F5F1F4F8A8590E00F9043
:1014D0000F900F900F900817190764F38BE193E0BA
:1014E0000E94CB0EDF91CF911F910F91FF90EF9053
:1014F000DF90CF9008950F931F93CF93DF93D62F54
:10150000C72F182F042F80E80E9452094D2F407CCE
:10151000405460EC8AE20E941A09DF734FEF4D0FCE
:101520006FE38AE20E941A09C7FB442740F94795F6
:101530004427479560E489E20E941A09C6FB4427C4
:1015400040F94295440F440F407C60E489E20E94D8
:101550001A094C2F46954695469547704150440FC1
:10156000440F440F68E389E20E941A09C7704FEFE5
:101570004C0F67E089E20E941A09412F47704150E1
:1015800067E088E20E941A09002321F080E40E94AB
:10159000520903C080E00E945209DF91CF911F9150
:1015A0000F910895CF93DF9363E070E00E94D50B15
:1015B000009729F0019731F0C1E5D0E505C0C1E3FE
:1015C000D0E302C0C1E4D0E40E94C90885E00E94D3
:1015D000D4088D2F0E94D40888E00E94D40880E0AF
:1015E0000E94D4080E94C7080E94C90882E00E9495
:1015F000D4088C2F0E94D408CDE0D0E080E00E9477
:10160000D4082197D9F70E94C708DF91CF91089598
:10161000CF93DF93EC010E94C908CE0163E070E034
:101620000E94D50BD82FC92F009739F08130910532
:1016300031F0029731F484E805C081E803C082E804
:1016400001C081E80E94D4080E94C7088D2F9C2FFA
:101650000E94D20ADF91CF910895CF92DF92EF924C
:10166000FF920F931F93CF93DF93CDB7DEB72B97E6
:101670000FB6F894DEBF0FBECDBFC982DA82EB820F
:10168000FC820D831E832F83388749875A876B8797
:10169000882351F0813069F0823009F04DC00F2E5F
:1016A000F1E5EF2EF02D09C00F2EF1E3EF2EF02D16
:1016B00004C00F2EF1E4EF2EF02DD82E09811A81EF
:1016C000FB840E94C90882E00E94D4088E2D0E94EB
:1016D000D408C80196958795969587959695879590
:1016E0000E94D408802F8295880F807E0E94D408A3
:1016F00080E00E94D40880E00E94D4088F2D8F7073
:101700000E94D408FF2091F08E010D5F1F4FFA94C4
:101710009E012F0D311DC90104967C01F8018191B4
:101720008F010E94D4080E151F05C1F70E94C7083B
:101730008D2D90E00E94080B2B960FB6F894DEBF1B
:101740000FBECDBFDF91CF911F910F91FF90EF9012
:10175000DF90CF900895CF92DF92EF92FF920F9398
:101760001F93CF93DF93EC0181E293E00E94D802B4
:10177000E1E2F3E0E180EA82F080FB8202810C8307
:1017800013811D83C880D9802E813F81488559856A
:101790006A8580E00E942D0BDF91CF911F910F9100
:1017A000FF90EF90DF90CF90089597FB072E16F4EF
:1017B000009407D077FD09D00E94E90B07FC05D003
:1017C0003EF4909581959F4F0895709561957F4F58
:1017D0000895AA1BBB1B51E107C0AA1FBB1FA61778
:1017E000B70710F0A61BB70B881F991F5A95A9F7CA
:1017F00080959095BC01CD0108950E94040C6894D9
:10180000B1110C94930C08950E94780C88F09F57A6
:1018100098F0B92F9927B751B0F0E1F0660F771F14
:10182000881F991F1AF0BA95C9F714C0B13091F00A
:101830000E94920CB1E008950C94920C672F782FBF
:101840008827B85F39F0B93FCCF3869577956795CF
:10185000B395D9F73EF490958095709561957F4F3B
:101860008F4F9F4F0895E89409C097FB3EF49095E1
:101870008095709561957F4F8F4F9F4F9923A9F069
:10188000F92F96E9BB279395F695879577956795F8
:10189000B795F111F8CFFAF4BB0F11F460FF1BC03C
:1018A0006F5F7F4F8F4F9F4F16C0882311F096E9CF
:1018B00011C0772321F09EE8872F762F05C066237D
:1018C00071F096E8862F70E060E02AF09A95660F36
:1018D000771F881FDAF7880F9695879597F90895EF
:1018E00057FD9058440F551F59F05F3F71F04795D1
:1018F000880F97FB991F61F09F3F79F087950895B6
:10190000121613061406551FF2CF4695F1DF08C0D4
:10191000161617061806991FF1CF869571056105F1
:1019200008940895E894BB2766277727CB0197F999
:1019300008950E94780CE8F09E37E8F09639B8F4E4
:101940009E3848F4672F782F8827985FF9CF8695BF
:101950007795679593959539D0F3B62FB1706B0F46
:10196000711D811D20F487957795679593950C944B
:10197000BD0C0C94D80C0C94930C882371F4772331
:1019800021F09850872B762F07C0662311F49927F2
:101990000DC09051862B70E060E02AF09A95660F9A
:1019A000771F881FDAF7880F9695879597F908951E
:1019B0009F3F31F0915020F4879577956795B795C3
:1019C000880F911D9695879597F908950F931F930A
:1019D000CF93DF938230910510F482E090E0E091A4
:1019E0003C03F0913D0320E030E0A0E0B0E0309710
:1019F00019F1408151810281138148175907C8F0BC
:101A00008417950769F4109731F012960C9312978A
:101A100013961C9327C000933C0310933D0322C0F0
:101A20002115310519F04217530718F49A01BD0129
:101A3000EF01DF01F801DBCF21153105F9F0281B9B
:101A4000390B2430310580F48A819B816115710541
:101A500021F0FB019383828304C090933D03809324
:101A60003C03FE01329644C0FE01E20FF31F819356
:101A7000919322503109398328833AC020913A0347
:101A800030913B03232B41F420910201309103015B
:101A900030933B0320933A032091000130910101E0
:101AA0002115310541F42DB73EB740910401509105
:101AB0000501241B350BE0913A03F0913B03E2173B
:101AC000F307A0F42E1B3F0B2817390778F0AC0161
:101AD0004E5F5F4F2417350748F04E0F5F1F50933E
:101AE0003B0340933A038193919302C0E0E0F0E01E
:101AF000CF01DF91CF911F910F910895CF93DF9385
:101B0000009709F481C0FC01329713821282A091E0
:101B10003C03B0913D03109781F420813181820F05
:101B2000931F20913A0330913B032817390751F551
:101B3000F0933B03E0933A0367C0ED0120E030E00F
:101B4000CE17DF0740F44A815B819E0141155105A4
:101B5000F1F0EA01F5CFD383C28340815181840F34
:101B6000951FC817D90759F488819981840F951F4B
:101B70000296918380838A819B819383828321153E
:101B8000310529F4F0933D03E0933C033DC0E901A6
:101B9000FB83EA8349915991C40FD51FEC17FD07C8
:101BA00061F480819181840F951F0296E9019983E8
:101BB0008883828193819B838A83E0E0F0E01296A0
:101BC0008D919C911397009719F0FD01DC01F7CFDF
:101BD0008D919C9111979D012E5F3F4F820F931F16
:101BE00020913A0330913B032817390769F4309765
:101BF00029F410923D0310923C0302C0138212821A
:101C0000B0933B03A0933A03DF91CF9108958F9255
:101C10009F92AF92BF92CF92DF92EF92FF92CF93BB
:101C2000DF93EC01688179818A819B81611571055F
:101C30008105910521F464E279ED8BE597E02DE1D2
:101C400033EF41E050E00E94D11149015A019B015C
:101C5000AC01A7EAB1E40E94F0116B017C01ACEE8B
:101C6000B4EFA50194010E94FE11DC01CB018C0DA3
:101C70009D1DAE1DBF1DB7FF03C00197A109B04850
:101C800088839983AA83BB839F77DF91CF91FF904D
:101C9000EF90DF90CF90BF90AF909F908F9008957E
:101CA0000E94070E089586E091E00E94070E0895B5
:101CB000A0E0B0E08093060190930701A093080193
:101CC000B093090108950F931F93CF93DF9300976B
:101CD00031F46115710519F480E090E03AC08B0190
:101CE000EC016EE070E081E090E00E94FE10FC01EB
:101CF000892B91F380E883830115110571F0138717
:101D0000028781E8838380913E0390913F03892B72
:101D100021F4F0933F03E0933E032097C9F0D1876D
:101D2000C0878381826083838091400390914103C7
:101D3000892B71F4F0934103E093400380914203B7
:101D400090914303892B21F4F0934303E0934203E2
:101D5000CF01DF91CF911F910F910895A0E0B0E0E6
:101D6000E4EBFEE00C941312AE014B5F5F4FFA01FF
:101D700061917191AF0180914003909141030E9464
:101D80001D0FE2E00C942F1260914003709141030B
:101D90000E94371108950F931F93CF93DF93E09123
:101DA0004003F0914103238121FF1BC08C01D0E04F
:101DB000C0E0F80181918F0160914003709141036F
:101DC000DB011896ED91FC911997882331F0099564
:101DD000892B79F3DFEFCFEFECCF8AE00995892BE0
:101DE00019F08FEF9FEF02C08D2F9C2FDF91CF91C5
:101DF0001F910F910895AEE0B0E0E1E0FFE00C9498
:101E000011120D891E8986E08C831A8309838FEF56
:101E10009FE79E838D83AE01475E5F4F6F89788D0C
:101E2000CE0101960E941D0FEF81F885E00FF11F92
:101E300010822E96E4E00C942D12ABE0B0E0E3E2C9
:101E4000FFE00C9403126C017B018A01FC011782F4
:101E50001682838181FFCCC1CE0101963C01F6013F
:101E60009381F70193FD859193FF81917F018823F1
:101E700009F4BAC1853239F493FD859193FF8191BC
:101E80007F01853229F4B60190E00E943711E7CF37
:101E9000912C212C312CFFE1F315D8F08B3279F005
:101EA00038F4803279F08332A1F4232D20611DC0F3
:101EB0008D3261F0803369F4232D216016C0832DAB
:101EC0008260382EE32DE4603E2E2AC0F32DF860A8
:101ED0001DC037FC2DC020ED280F2A3040F08E3277
:101EE000B9F436FC81C1232D2064322E19C036FE90
:101EF00006C08AE0989E200D1124922E11C0EAE0BF
:101F00002E9E200D1124222EF32DF0623F2E08C0AC
:101F10008C3621F4832D8068382E02C0883641F437
:101F2000F70193FD859193FF81917F018111B3CFDB
:101F3000982F9F7D9554933028F40C5F1F4F9FE39B
:101F400099830DC0833631F0833771F0833509F002
:101F500059C021C0F801808189830E5F1F4F8824FA
:101F60008394912C530113C02801F2E04F0E511CB1
:101F7000F801A080B18036FE03C0692D70E002C078
:101F80006FEF7FEFC5010E942C114C018201F32DF0
:101F9000FF773F2E16C0280122E0420E511CF801A7
:101FA000A080B18036FE03C0692D70E002C06FEFE3
:101FB0007FEFC5010E941A114C01F32DF0683F2EEE
:101FC000820133FC1BC0822D90E088169906B0F484
:101FD000B60180E290E00E9437112A94F4CFF50117
:101FE00037FC859137FE81915F01B60190E00E9438
:101FF000371121102A9421E0821A9108811491044A
:1020000071F7E8C0843611F0893641F5F80137FEE2
:1020100007C060817181828193810C5F1F4F08C06E
:1020200060817181072E000C880B990B0E5F1F4F8A
:10203000F32DFF763F2E97FF09C090958095709500
:1020400061957F4F8F4F9F4FF0683F2E2AE030E021
:10205000A3010E947311882E861845C0853731F47C
:10206000232D2F7EB22E2AE030E025C0932D997FBC
:10207000B92E8F36C1F018F4883579F0B5C08037A5
:1020800019F0883721F0B0C0E92FE061BE2EB4FE10
:102090000DC0FB2DF460BF2E09C034FE0AC0292FED
:1020A0002660B22E06C028E030E005C020E130E016
:1020B00002C020E132E0F801B7FE07C06081718103
:1020C000828193810C5F1F4F06C06081718180E027
:1020D00090E00E5F1F4FA3010E947311882E861897
:1020E000FB2DFF773F2E36FE0DC0232D2E7FA22E17
:1020F000891458F434FE0BC032FC09C0832D8E7E47
:10210000A82E05C0B82CA32C03C0B82C01C0B92C34
:10211000A4FE0FC0FE01E80DF11D8081803321F483
:102120009A2D997EA92E09C0A2FE06C0B394B3943D
:1021300004C08A2D867809F0B394A3FC11C0A0FED8
:1021400006C0B21488F4280C922C9B180EC0B2144E
:1021500060F4B60180E290E00E943711B394F7CFAB
:10216000B21418F42B1802C0982C212CA4FE10C015
:10217000B60180E390E00E943711A2FE17C0A1FCD7
:1021800003C088E790E002C088E590E0B6010CC08B
:102190008A2D867859F0A1FE02C08BE201C080E250
:1021A000A7FC8DE2B60190E00E943711891438F443
:1021B000B60180E390E00E9437119A94F7CF8A9499
:1021C000F301E80DF11D8081B60190E00E94371106
:1021D0008110F5CF222009F442CEB60180E290E0D2
:1021E0000E9437112A94F6CFF6018681978102C0AA
:1021F0008FEF9FEF2B96E2E10C941F120F931F932A
:10220000CF93DF93869F8001879F100D969F100DBF
:102210001124C8010E94E60CEC01009729F0A801E6
:1022200060E070E00E942511CE01DF91CF911F91F7
:102230000F910895FC010590615070400110D8F78E
:10224000809590958E0F9F1F0895DC0101C06D93BE
:1022500041505040E0F70895FC01615070400190FA
:102260000110D8F7809590958E0F9F1F08950F93BA
:102270001F93CF93DF93FB01238121FD03C08FEFD9
:102280009FEF2CC022FF16C04681578124813581E3
:102290004217530744F4A081B1819D012F5F3F4F46
:1022A000318320838C93268137812F5F3F4F378383
:1022B000268314C08B01EC01FB010084F185E02D25
:1022C0000995892BE1F6D80116968D919C91179767
:1022D000019617969C938E931697CE01DF91CF911E
:1022E0001F910F910895FA01AA27283051F120314A
:1022F00081F1E8946F936E7F6E5F7F4F8F4F9F4F9A
:10230000AF4FB1E03ED0B4E03CD0670F781F891FDB
:102310009A1FA11D680F791F8A1F911DA11D6A0FA9
:10232000711D811D911DA11D20D009F468943F915C
:102330002AE0269F11243019305D3193DEF6CF015B
:102340000895462F4770405D4193B3E00FD0C9F721
:10235000F6CF462F4F70405D4A3318F0495D31FD8E
:102360004052419302D0A9F7EACFB4E0A6959795E1
:10237000879577956795BA95C9F7009761057105B7
:1023800008959B01AC010A2E069457954795379501
:102390002795BA95C9F7620F731F841F951FA01D5B
:1023A0000895052E97FB1EF400940E94E81157FD36
:1023B00007D00E943A1207FC03D04EF40C94E811A7
:1023C00050954095309521953F4F4F4F5F4F089561
:1023D00090958095709561957F4F8F4F9F4F089591
:1023E0000E945C12A59F900DB49F900DA49F800D3C
:1023F000911D11240895B7FF0C94F0110E94F01163
:10240000821B930B08952F923F924F925F926F928F
:102410007F928F929F92AF92BF92CF92DF92EF9274
:10242000FF920F931F93CF93DF93CDB7DEB7CA1BF5
:10243000DB0B0FB6F894DEBF0FBECDBF09942A8820
:10244000398848885F846E847D848C849B84AA84C8
:10245000B984C884DF80EE80FD800C811B81AA8155
:10246000B981CE0FD11D0FB6F894DEBF0FBECDBF20
:10247000ED010895A1E21A2EAA1BBB1BFD010DC0A0
:10248000AA1FBB1FEE1FFF1FA217B307E407F50724
:1024900020F0A21BB30BE40BF50B661F771F881F00
:1024A000991F1A9469F760957095809590959B0196
:1024B000AC01BD01CF010895A29FB001B39FC0013F
:1024C000A39F700D811D1124911DB29F700D811D60
:0A24D0001124911D0895F894FFCF28
:1024DA000000440320000100000043757272656E1B
:1024EA007420627265616B6C696E653A2025640DB1
:1024FA000A005374617274696E67205352414D2009
:10250A00746573742E2E2E00577269746520706874
:10251A00617365206572726F723A206578745F72B2
:10252A00616D5B2534645D203D20253032582028BA
:10253A0073686F756C642062652025303258290AE9
:10254A000052657472696576616C207068617365A2
:10255A00206572726F723A206578745F72616D5B82
:10256A002534645D203D2025303258202873686F59
:10257A00756C642062652025303258290A0053524E
:10258A00414D207465737420636F6D706C6574655A
:10259A00642077697468200A253464206572726F32
:1025AA00727320696E20777269746520706861732E
:1025BA006520616E64200A253464206572726F7228
:1025CA007320696E2072657472696576616C207019
:1025DA00686173650A0A001B5B481B5B4A000A0AAA
:1025EA005820617869733A202564000A5920617875
:1025FA0069733A202564000A526967687420536C2B
:10260A0069646572202564000A4C65667420536CFF
:10261A0069646572202564004C4546540052494756
:10262A004854004E45555452414C00555000444FB1
:10263A00574E00554E4B4E4F574E005265636569D3
:10264A0076696E673A202530325800484947482053
:10265A0053434F524553005354415254204E455709
:10266A002047414D450052455455524E0030004DC9
:10267A0043503235312043414E535441543A202578
:10268A0078200D0A004D6573736167652066726F65
:10269A006D20525842303A204944203D2025782C5A
:1026AA00204C656E677468203D2025642C204461A7
:1026BA0074613A20002530325820004D65737361E9
:1026CA0067652066726F6D20525842313A2049443C
:1026DA00203D2025782C204C656E677468203D20AB
:0E26EA0025642C20446174613A20000D00002C
:00000001FF
