:100000000C9438000C9442000C9442000C94420072
:100010000C9442000C9442000C9442000C94420058
:100020000C9442000C9442000C9442000C94420048
:100030000C9442000C9442000C9442000C94420038
:100040000C9442000C9442000C9442000C94420028
:100050000C9442000C9442000C9442000C94420018
:100060000C9442000C9442000C9442000C94420008
:1000700011241FBECFEFD4E0DEBFCDBF0E944400ED
:100080000C9457000C94000081E08ABB1BBA84BB1F
:1000900082E084BB84E084BB88E084BB15BA85BB66
:1000A000EFE4F3EC3197F1F700C00000F7CFF894DC
:0200B000FFCF80
:00000001FF
