:100000000C9438000C9455000C9455000C94550039
:100010000C9455000C9455000C9455000C9455000C
:100020000C9455000C9455000C9455000C945500FC
:100030000C9455000C9455000C9455000C945500EC
:100040000C9455000C9455000C9455000C945500DC
:100050000C9455000C9455000C9455000C945500CC
:100060000C9455000C9455000C9455000C945500BC
:1000700011241FBECFEFD4E0DEBFCDBF12E0A0E061
:10008000B1E0EEE8F1E102C005900D92A033B107B6
:10009000D9F722E0A0E3B2E001C01D92A134B2077B
:1000A000E1F70E9457000C94C5080C9400008FE102
:1000B00090E00E948E010E949B010E942A028FEA1A
:1000C0000E9424028EEA0E942402F9CF8D9A8EB5F6
:1000D00088608EBD8FB58E7F8FBD8FB58D7F8FBDB4
:1000E0008FB580648FBD1BBC1ABC8EB581608EBD80
:1000F00008950895E0E0F4E181E0808380838083C7
:10010000808322E030E0A1E3B2E002C02F5F3F4FE6
:10011000C901019740818230910571F018F401976F
:1001200039F013C08330910549F0049759F00DC0A0
:1001300011964C931197EACF4C93E8CF13964C93BA
:100140001397E4CF40933302089525303105F4F23C
:100150000895EF92FF920F931F93CF93DF93C1E324
:10016000D2E01981288130E02F57310904E6029F3F
:10017000C001039F900D11240F2EFFE7EF2EF12CED
:10018000F02DB7010E945802072E000C880B990B26
:100190000E94B8020E941C030E9480026C83212FDF
:1001A00030E02F573109029FC001039F900D1124A9
:1001B000B7010E945802072E000C880B990B0E9471
:1001C000B8020E941C030E9480026D838AE091E0C5
:1001D0009F938F930E9410048C81282F082E000C6F
:1001E000330B3F938F9381E191E09F938F930E9414
:1001F00010048D81282F082E000C330B3F938F9312
:100200008EE191E09F938F930E9410048B811F9247
:100210008F938AE291E09F938F930E9410048A81CA
:100220001F928F938BE391E09F938F930E94100412
:100230002C81E22F022E000CFF0B6D81A62F062EC3
:10024000000CBB0BCD01BB2324F4882799278A1B04
:100250009B0B31E04DB75EB74E5E5F4F0FB6F89423
:100260005EBF0FBE4DBF22330CF430E0332339F0B4
:1002700031E08E179F070CF030E0311131C0AF0133
:10028000FF2324F4442755274E1B5F0B31E02F3CFE
:100290000CF030E0332339F021E0841795070CF09F
:1002A00020E0211120C021E062330CF420E0222361
:1002B00039F021E04A175B070CF020E0211116C04D
:1002C00021E06F3C0CF020E0222339F021E04817B8
:1002D00059070CF020E021110CC082E090E00BC027
:1002E00081E090E008C080E090E005C083E090E00D
:1002F00002C084E090E0DF91CF911F910F91FF90B9
:10030000EF9008955D9BFECF8CB908955F9BFECF63
:100310008BB18AB18CB18FEF9FEF089590BD89B9F1
:1003200088E18AB98EE880BD66E871E082E891E0F4
:100330000E94C503089585B7806885BF80E280BFAD
:100340000895CF92DF92EF92FF920F931F93CF9376
:10035000DF938BE491E00E9426040E94B5037C01A8
:100360000E94BA03C12CD12C00E010E0C1E6D1E01C
:100370000E94B503F601F85E808320812817A9F05A
:1003800099279F938F931F922F93DF92CF92DF93A2
:10039000CF930E9410040F5F1F4F8DB79EB7089632
:1003A0000FB6F8949EBF0FBE8DBF9FEFC91AD90A32
:1003B000C11488E0D806E1F6C7010E94BA03C0E084
:1003C000D0E0E12CF12C0F2EFAE9CF2EF1E0DF2E58
:1003D000F02D0E94B503FE01F85E20812817B1F0D0
:1003E00099279F938F931F922F93DF93CF93DF9241
:1003F000CF920E9410049FEFE91AF90A8DB79EB7B9
:1004000008960FB6F8949EBF0FBE8DBF2196C115FA
:1004100098E0D907F1F6FF92EF921F930F9387EDC3
:1004200091E09F938F930E9410040F900F900F9074
:100430000F900F900F90DF91CF911F910F91FF9030
:10044000EF90DF90CF9008958093001008958093EF
:1004500000120895E0E0F0E18EEA808381EA808373
:100460008AED808382E1808388EC808388EA8083C0
:100470008FE3808385ED808380E8808381E88083BB
:1004800080E5808389ED808381E2808380E28083C0
:1004900082E080838BED808380E380838DEA80839C
:1004A000108284EA808386EA80838FEA80830895BD
:1004B00097FB072E16F4009407D077FD09D00E9411
:1004C0006C0207FC05D03EF4909581959F4F0895EE
:1004D000709561957F4F0895AA1BBB1B51E107C022
:1004E000AA1FBB1FA617B70710F0A61BB70B881FC4
:1004F000991F5A95A9F780959095BC01CD01089553
:100500000E9487026894B1110C94160308950E940A
:10051000FB0288F09F5798F0B92F9927B751B0F098
:10052000E1F0660F771F881F991F1AF0BA95C9F777
:1005300014C0B13091F00E941503B1E008950C94FD
:100540001503672F782F8827B85F39F0B93FCCF3B0
:10055000869577956795B395D9F73EF490958095F4
:10056000709561957F4F8F4F9F4F0895E89409C014
:1005700097FB3EF490958095709561957F4F8F4FD6
:100580009F4F9923A9F0F92F96E9BB279395F695EC
:10059000879577956795B795F111F8CFFAF4BB0F6A
:1005A00011F460FF1BC06F5F7F4F8F4F9F4F16C0CE
:1005B000882311F096E911C0772321F09EE8872F58
:1005C000762F05C0662371F096E8862F70E060E014
:1005D0002AF09A95660F771F881FDAF7880F96958D
:1005E000879597F9089557FD9058440F551F59F076
:1005F0005F3F71F04795880F97FB991F61F09F3F10
:1006000079F087950895121613061406551FF2CF38
:100610004695F1DF08C0161617061806991FF1CF88
:1006200086957105610508940895E894BB276627AF
:100630007727CB0197F908950E94FB02E8F09E37D7
:10064000E8F09639B8F49E3848F4672F782F882759
:10065000985FF9CF86957795679593959539D0F3FF
:10066000B62FB1706B0F711D811D20F487957795A2
:10067000679593950C9440030C945B030C941603BC
:10068000882371F4772321F09850872B762F07C0A9
:10069000662311F499270DC09051862B70E060E01D
:1006A0002AF09A95660F771F881FDAF7880F9695BC
:1006B000879597F908959F3F31F0915020F48795E1
:1006C00077956795B795880F911D9695879597F9BA
:1006D00008958F929F92AF92BF92CF92DF92EF9246
:1006E000FF92CF93DF93EC01688179818A819B81AE
:1006F000611571058105910521F464E279ED8BE5C1
:1007000097E02DE133EF41E050E00E942B084901D2
:100710005A019B01AC01A7EAB1E40E944A086B01AF
:100720007C01ACEEB4EFA50194010E945808DC01F5
:10073000CB018C0D9D1DAE1DBF1DB7FF03C00197E2
:10074000A109B04888839983AA83BB839F77DF91EF
:10075000CF91FF90EF90DF90CF90BF90AF909F90A0
:100760008F9008950E946903089580E091E00E94AF
:1007700069030895A0E0B0E0809300019093010127
:10078000A0930201B093030108950F931F93CF9399
:10079000DF93009731F46115710519F480E090E062
:1007A0003AC08B01EC016EE070E081E090E00E94C5
:1007B0003706FC01892B91F380E88383011511052D
:1007C00071F01387028781E88383809137029091CB
:1007D0003802892B21F4F0933802E09337022097F6
:1007E000C9F0D187C0878381826083838091390279
:1007F00090913A02892B71F4F0933A02E093390216
:1008000080913B0290913C02892B21F4F0933C02B1
:10081000E0933B02CF01DF91CF911F910F9108959B
:10082000A0E0B0E0E6E1F4E00C946D08AE014B5FAF
:100830005F4FFA0161917191AF01809139029091FE
:100840003A020E945604E2E00C9489080F931F9329
:10085000CF93DF93E0913902F0913A02238121FF97
:100860001BC08C01D0E0C0E0F80181918F01609144
:10087000390270913A02DB011896ED91FC911997BB
:10088000882331F00995892B79F3DFEFCFEFECCF97
:100890008AE00995892B19F08FEF9FEF02C08D2F09
:1008A0009C2FDF91CF911F910F910895ABE0B0E0A5
:1008B000ECE5F4E00C945D086C017B018A01FC011D
:1008C00017821682838181FFCCC1CE0101963C0143
:1008D000F6019381F70193FD859193FF81917F014B
:1008E000882309F4BAC1853239F493FD859193FFC9
:1008F00081917F01853229F4B60190E00E94910731
:10090000E7CF912C212C312CFFE1F315D8F08B325D
:1009100079F038F4803279F08332A1F4232D20610C
:100920001DC08D3261F0803369F4232D216016C023
:10093000832D8260382EE32DE4603E2E2AC0F32DF5
:10094000F8601DC037FC2DC020ED280F2A3040F084
:100950008E32B9F436FC81C1232D2064322E19C0A9
:1009600036FE06C08AE0989E200D1124922E11C0FA
:10097000EAE02E9E200D1124222EF32DF0623F2E50
:1009800008C08C3621F4832D8068382E02C088364A
:1009900041F4F70193FD859193FF81917F018111CE
:1009A000B3CF982F9F7D9554933028F40C5F1F4F41
:1009B0009FE399830DC0833631F0833771F083351F
:1009C00009F059C021C0F801808189830E5F1F4F53
:1009D00088248394912C530113C02801F2E04F0E18
:1009E000511CF801A080B18036FE03C0692D70E073
:1009F00002C06FEF7FEFC5010E9486074C018201A4
:100A0000F32DFF773F2E16C0280122E0420E511C25
:100A1000F801A080B18036FE03C0692D70E002C0ED
:100A20006FEF7FEFC5010E9474074C01F32DF06852
:100A30003F2E820133FC1BC0822D90E08816990660
:100A4000B0F4B60180E290E00E9491072A94F4CFBE
:100A5000F50137FC859137FE81915F01B60190E089
:100A60000E94910721102A9421E0821A9108811492
:100A7000910471F7E8C0843611F0893641F5F80128
:100A800037FE07C060817181828193810C5F1F4FA7
:100A900008C060817181072E000C880B990B0E5FD6
:100AA0001F4FF32DFF763F2E97FF09C0909580953D
:100AB000709561957F4F8F4F9F4FF0683F2E2AE0D2
:100AC00030E0A3010E94CD07882E861845C08537E7
:100AD00031F4232D2F7EB22E2AE030E025C0932D55
:100AE000997FB92E8F36C1F018F4883579F0B5C0EA
:100AF000803719F0883721F0B0C0E92FE061BE2EB1
:100B0000B4FE0DC0FB2DF460BF2E09C034FE0AC038
:100B1000292F2660B22E06C028E030E005C020E173
:100B200030E002C020E132E0F801B7FE07C060818A
:100B30007181828193810C5F1F4F06C0608171813A
:100B400080E090E00E5F1F4FA3010E94CD07882E2A
:100B50008618FB2DFF773F2E36FE0DC0232D2E7FEE
:100B6000A22E891458F434FE0BC032FC09C0832D28
:100B70008E7EA82E05C0B82CA32C03C0B82C01C0B3
:100B8000B92CA4FE0FC0FE01E80DF11D8081803359
:100B900021F49A2D997EA92E09C0A2FE06C0B39415
:100BA000B39404C08A2D867809F0B394A3FC11C0D5
:100BB000A0FE06C0B21488F4280C922C9B180EC01C
:100BC000B21460F4B60180E290E00E949107B39401
:100BD000F7CFB21418F42B1802C0982C212CA4FEC5
:100BE00010C0B60180E390E00E949107A2FE17C0FA
:100BF000A1FC03C088E790E002C088E590E0B60160
:100C00000CC08A2D867859F0A1FE02C08BE201C08B
:100C100080E2A7FC8DE2B60190E00E949107891462
:100C200038F4B60180E390E00E9491079A94F7CFE0
:100C30008A94F301E80DF11D8081B60190E00E94D5
:100C400091078110F5CF222009F442CEB60180E24F
:100C500090E00E9491072A94F6CFF6018681978151
:100C600002C08FEF9FEF2B96E2E10C9479080F936F
:100C70001F93CF93DF93869F8001879F100D969FD0
:100C8000100D1124C8010E945306EC01009729F0B1
:100C9000A80160E070E00E947F07CE01DF91CF9154
:100CA0001F910F9108950F931F93CF93DF9382307D
:100CB000910510F482E090E0E0913F02F091400253
:100CC00020E030E0A0E0B0E0309719F140815181A0
:100CD0000281138148175907C8F08417950769F4F2
:100CE000109731F012960C93129713961C9327C00D
:100CF00000933F021093400222C02115310519F0E4
:100D00004217530718F49A01BD01EF01DF01F80102
:100D1000DBCF21153105F9F0281B390B24303105C3
:100D200080F48A819B816115710521F0FB01938319
:100D3000828304C09093400280933F02FE0132966A
:100D400044C0FE01E20FF31F8193919322503109B9
:100D5000398328833AC020913D0230913E02232BF3
:100D600041F4209106013091070130933E02209317
:100D70003D0220910401309105012115310541F416
:100D80002DB73EB74091080150910901241B350B46
:100D9000E0913D02F0913E02E217F307A0F42E1B12
:100DA0003F0B2817390778F0AC014E5F5F4F2417CF
:100DB000350748F04E0F5F1F50933E0240933D02AF
:100DC0008193919302C0E0E0F0E0CF01DF91CF91F9
:100DD0001F910F910895CF93DF93009709F481C07D
:100DE000FC01329713821282A0913F02B09140021F
:100DF000109781F420813181820F931F20913D0251
:100E000030913E022817390751F5F0933E02E093E6
:100E10003D0267C0ED0120E030E0CE17DF0740F46F
:100E20004A815B819E0141155105F1F0EA01F5CF40
:100E3000D383C28340815181840F951FC817D9077E
:100E400059F488819981840F951F0296918380833C
:100E50008A819B81938382832115310529F4F09344
:100E60004002E0933F023DC0E901FB83EA834991E0
:100E70005991C40FD51FEC17FD0761F48081918152
:100E8000840F951F0296E90199838883828193815B
:100E90009B838A83E0E0F0E012968D919C911397FA
:100EA000009719F0FD01DC01F7CF8D919C9111970E
:100EB0009D012E5F3F4F820F931F20913D02309185
:100EC0003E022817390769F4309729F4109240023E
:100ED00010923F0202C013821282B0933E02A0938E
:100EE0003D02DF91CF910895FC0105906150704063
:100EF0000110D8F7809590958E0F9F1F0895DC0103
:100F000001C06D9341505040E0F70895FC016150DD
:100F1000704001900110D8F7809590958E0F9F1F1B
:100F200008950F931F93CF93DF93FB01238121FD3E
:100F300003C08FEF9FEF2CC022FF16C04681578160
:100F4000248135814217530744F4A081B1819D016A
:100F50002F5F3F4F318320838C93268137812F5F12
:100F60003F4F3783268314C08B01EC01FB010084C3
:100F7000F185E02D0995892BE1F6D80116968D9122
:100F80009C911797019617969C938E931697CE0176
:100F9000DF91CF911F910F910895FA01AA27283070
:100FA00051F1203181F1E8946F936E7F6E5F7F4F36
:100FB0008F4F9F4FAF4FB1E03ED0B4E03CD0670FB2
:100FC000781F891F9A1FA11D680F791F8A1F911D05
:100FD000A11D6A0F711D811D911DA11D20D009F455
:100FE00068943F912AE0269F11243019305D319397
:100FF000DEF6CF010895462F4770405D4193B3E080
:101000000FD0C9F7F6CF462F4F70405D4A3318F026
:10101000495D31FD4052419302D0A9F7EACFB4E0D7
:10102000A6959795879577956795BA95C9F700978F
:101030006105710508959B01AC010A2E0694579530
:10104000479537952795BA95C9F7620F731F841F87
:10105000951FA01D0895052E97FB1EF400940E9475
:10106000420857FD07D00E94940807FC03D04EF4B5
:101070000C94420850954095309521953F4F4F4F25
:101080005F4F089590958095709561957F4F8F4F34
:101090009F4F08950E94B608A59F900DB49F900D94
:1010A000A49F800D911D11240895B7FF0C944A0848
:1010B0000E944A08821B930B08952F923F924F92F1
:1010C0005F926F927F928F929F92AF92BF92CF92D8
:1010D000DF92EF92FF920F931F93CF93DF93CDB7E1
:1010E000DEB7CA1BDB0B0FB6F894DEBF0FBECDBF59
:1010F00009942A88398848885F846E847D848C842A
:101100009B84AA84B984C884DF80EE80FD800C8132
:101110001B81AA81B981CE0FD11D0FB6F894DEBF15
:101120000FBECDBFED010895A1E21A2EAA1BBB1B75
:10113000FD010DC0AA1FBB1FEE1FFF1FA217B307A3
:10114000E407F50720F0A21BB30BE40BF50B661FB9
:10115000771F881F991F1A9469F76095709580957D
:1011600090959B01AC01BD01CF010895A29FB001F4
:10117000B39FC001A39F700D811D1124911DB29FCB
:0E118000700D811D1124911D0895F894FFCF6C
:10118E00010000000000410220001B5B481B5B4A6F
:10119E00000A0A5820617869733A202564000A59BA
:1011AE0020617869733A202564000A526967687471
:1011BE0020536C69646572202564000A4C65667460
:1011CE0020536C69646572202564005374617274D7
:1011DE00696E67205352414D20746573742E2E2E06
:1011EE00005772697465207068617365206572724C
:1011FE006F723A206578745F72616D5B2534645D41
:10120E00203D2025303258202873686F756C64207D
:10121E0062652025303258290A005265747269655C
:10122E0076616C207068617365206572726F723AB8
:10123E00206578745F72616D5B2534645D203D209E
:10124E0025303258202873686F756C6420626520D3
:10125E0025303258290A005352414D20746573745B
:10126E0020636F6D706C6574656420776974682097
:10127E000A253464206572726F727320696E20774E
:10128E007269746520706861736520616E64200AEE
:10129E00253464206572726F727320696E207265D8
:1012AE007472696576616C2070686173650A0A00F4
:00000001FF
