:100000000C9438000C9455000C9455000C94550039
:100010000C9455000C9455000C9455000C9455000C
:100020000C9455000C9455000C9455000C945500FC
:100030000C9455000C9455000C9455000C945500EC
:100040000C9455000C9455000C9455000C945500DC
:100050000C9455000C9455000C9455000C945500CC
:100060000C9455000C9455000C9455000C945500BC
:1000700011241FBECFEFD4E0DEBFCDBF12E0A0E061
:10008000B1E0E2EDF1E102C005900D92A436B107B6
:10009000D9F722E0A4E6B2E001C01D92A537B2076D
:1000A000E1F70E9457000C94E7080C9400008FE1E0
:1000B00090E00E94A0000E94AD000E945E010E949C
:1000C00072010E94A10182309105B1F028F40097DD
:1000D00049F0019761F01EC08330910591F00497BB
:1000E000A9F018C08AE091E00E94480413C082E1A0
:1000F00091E00E9448040EC08BE191E00E94480408
:1001000009C086E291E00E94480404C08CE291E0BC
:100110000E9448042FEF8FE791E0215080409040EB
:10012000E1F700C000C0CBCF5D9BFECF8CB9089536
:100130005F9BFECF8BB18AB18CB18FEF9FEF08959B
:1001400090BD89B988E18AB98EE880BD68E970E020
:1001500084E990E00E94E703089585B7806885BF31
:1001600080E280BF0895CF92DF92EF92FF920F93CB
:100170001F93CF93DF9384E391E00E9448040E9491
:10018000D7037C010E94DC03C12CD12C00E010E0DD
:10019000CAE4D1E00E94D703F601F85E8083208193
:1001A0002817A9F099279F938F931F922F93DF927F
:1001B000CF92DF93CF930E9432040F5F1F4F8DB712
:1001C0009EB708960FB6F8949EBF0FBE8DBF9FEFE7
:1001D000C91AD90AC11488E0D806E1F6C7010E94FD
:1001E000DC03C0E0D0E0E12CF12C0F2EF3E8CF2EA1
:1001F000F1E0DF2EF02D0E94D703FE01F85E208192
:100200002817B1F099279F938F931F922F93DF9315
:10021000CF93DF92CF920E9432049FEFE91AF90A3E
:100220008DB79EB708960FB6F8949EBF0FBE8DBFD0
:100230002196C11598E0D907F1F6FF92EF921F932E
:100240000F9380EC91E09F938F930E9432040F9064
:100250000F900F900F900F900F90DF91CF911F9103
:100260000F91FF90EF90DF90CF900895823091052D
:10027000B1F028F4009749F0019761F008958330B8
:10028000910591F00497A9F008958CE091E00E9407
:100290004804089589E192E00E94480408958DE1A0
:1002A00091E00E944804089588E291E00E94480489
:1002B00008958EE291E00E94480408958D9A8EB5CB
:1002C00088608EBD8FB58E7F8FBD8FB58D7F8FBDC2
:1002D0008FB580648FBD1BBC1ABC8EB581608EBD8E
:1002E00008950895E0E0F4E181E0808380838083D5
:1002F000808322E030E0A5E6B2E002C02F5F3F4FEE
:10030000C901019740818230910571F018F401977D
:1003100039F013C08330910549F0049759F00DC0AE
:1003200011964C931197EACF4C93E8CF13964C93C8
:100330001397E4CF40936702089525303105F4F216
:100340000895EF92FF920F931F93CF93DF93C5E62B
:10035000D2E01981288130E02F57310904E6029F4D
:10036000C001039F900D11240F2EFFE7EF2EF12CFB
:10037000F02DB7010E947A02072E000C880B990B12
:100380000E94DA020E943E030E94A2026C83212F87
:1003900030E02F573109029FC001039F900D1124B7
:1003A000B7010E947A02072E000C880B990B0E945D
:1003B000DA020E943E030E94A2026D8382E292E072
:1003C0009F938F930E9432048C81282F082E000C5B
:1003D000330B3F938F9389E292E09F938F930E9418
:1003E00032048D81282F082E000C330B3F938F93FE
:1003F00086E392E09F938F930E9432048B811F9239
:100400008F9382E492E09F938F930E9432048A81BB
:100410001F928F9383E592E09F938F930E94320403
:100420002C81E22F022E000CFF0B6D81A62F062ED1
:10043000000CBB0BCD01BB2324F4882799278A1B12
:100440009B0B31E04DB75EB74E5E5F4F0FB6F89431
:100450005EBF0FBE4DBF22330CF430E0332339F0C2
:1004600031E08E179F070CF030E0311131C0AF0141
:10047000FF2324F4442755274E1B5F0B31E02F3C0C
:100480000CF030E0332339F021E0841795070CF0AD
:1004900020E0211120C021E062330CF420E022236F
:1004A00039F021E04A175B070CF020E0211116C05B
:1004B00021E06F3C0CF020E0222339F021E04817C6
:1004C00059070CF020E021110CC082E090E00BC035
:1004D00081E090E008C080E090E005C083E090E01B
:1004E00002C084E090E0DF91CF911F910F91FF90C7
:1004F000EF90089597FB072E16F4009407D077FD30
:1005000009D00E948E0207FC05D03EF4909581959B
:100510009F4F0895709561957F4F0895AA1BBB1B4F
:1005200051E107C0AA1FBB1FA617B70710F0A61BF3
:10053000B70B881F991F5A95A9F780959095BC0114
:10054000CD0108950E94A9026894B1110C9438035A
:1005500008950E941D0388F09F5798F0B92F99279E
:10056000B751B0F0E1F0660F771F881F991F1AF09E
:10057000BA95C9F714C0B13091F00E943703B1E0C9
:1005800008950C943703672F782F8827B85F39F0C8
:10059000B93FCCF3869577956795B395D9F73EF437
:1005A00090958095709561957F4F8F4F9F4F0895DF
:1005B000E89409C097FB3EF49095809570956195FD
:1005C0007F4F8F4F9F4F9923A9F0F92F96E9BB27B3
:1005D0009395F695879577956795B795F111F8CF2F
:1005E000FAF4BB0F11F460FF1BC06F5F7F4F8F4F9A
:1005F0009F4F16C0882311F096E911C0772321F090
:100600009EE8872F762F05C0662371F096E8862F27
:1006100070E060E02AF09A95660F771F881FDAF77E
:10062000880F9695879597F9089557FD9058440F30
:10063000551F59F05F3F71F04795880F97FB991F41
:1006400061F09F3F79F087950895121613061406FE
:10065000551FF2CF4695F1DF08C01616170618068B
:10066000991FF1CF86957105610508940895E89466
:10067000BB2766277727CB0197F908950E941D03B2
:10068000E8F09E37E8F09639B8F49E3848F4672FC2
:10069000782F8827985FF9CF8695779567959395FA
:1006A0009539D0F3B62FB1706B0F711D811D20F4F9
:1006B00087957795679593950C9462030C947D03C9
:1006C0000C943803882371F4772321F09850872BFA
:1006D000762F07C0662311F499270DC09051862B01
:1006E00070E060E02AF09A95660F771F881FDAF7AE
:1006F000880F9695879597F908959F3F31F091500F
:1007000020F4879577956795B795880F911D9695F5
:10071000879597F908958F929F92AF92BF92CF924B
:10072000DF92EF92FF92CF93DF93EC0168817981A2
:100730008A819B81611571058105910521F464E22F
:1007400079ED8BE597E02DE133EF41E050E00E9439
:100750004D0849015A019B01AC01A7EAB1E40E948E
:100760006C086B017C01ACEEB4EFA50194010E9412
:100770007A08DC01CB018C0D9D1DAE1DBF1DB7FF9E
:1007800003C00197A109B04888839983AA83BB83DA
:100790009F77DF91CF91FF90EF90DF90CF90BF9048
:1007A000AF909F908F9008950E948B03089580E0F2
:1007B00091E00E948B030895A0E0B0E080930001D7
:1007C00090930101A0930201B093030108950F9348
:1007D0001F93CF93DF93009731F46115710519F4DE
:1007E00080E090E03AC08B01EC016EE070E081E0C7
:1007F00090E00E945906FC01892B91F380E88383E5
:100800000115110571F01387028781E883838091B8
:100810006B0290916C02892B21F4F0936C02E093AF
:100820006B022097C9F0D187C08783818260838360
:1008300080916D0290916E02892B71F4F0936E029B
:10084000E0936D0280916F0290917002892B21F4E8
:10085000F0937002E0936F02CF01DF91CF911F916F
:100860000F910895A0E0B0E0E8E3F4E00C948F0865
:10087000AE014B5F5F4FFA0161917191AF018091C1
:100880006D0290916E020E947804E2E00C94AB0835
:100890000F931F93CF93DF93E0916D02F0916E025F
:1008A000238121FF1BC08C01D0E0C0E0F8018191C1
:1008B0008F0160916D0270916E02DB011896ED91CF
:1008C000FC911997882331F00995892B79F3DFEF93
:1008D000CFEFECCF8AE00995892B19F08FEF9FEFCE
:1008E00002C08D2F9C2FDF91CF911F910F91089502
:1008F000ABE0B0E0EEE7F4E00C947F086C017B0124
:100900008A01FC0117821682838181FFCCC1CE014E
:1009100001963C01F6019381F70193FD859193FFC8
:1009200081917F01882309F4BAC1853239F493FD9E
:10093000859193FF81917F01853229F4B60190E082
:100940000E94B307E7CF912C212C312CFFE1F31546
:10095000D8F08B3279F038F4803279F08332A1F418
:10096000232D20611DC08D3261F0803369F4232D69
:10097000216016C0832D8260382EE32DE4603E2E68
:100980002AC0F32DF8601DC037FC2DC020ED280FC4
:100990002A3040F08E32B9F436FC81C1232D206418
:1009A000322E19C036FE06C08AE0989E200D112412
:1009B000922E11C0EAE02E9E200D1124222EF32D3E
:1009C000F0623F2E08C08C3621F4832D8068382ECB
:1009D00002C0883641F4F70193FD859193FF819120
:1009E0007F018111B3CF982F9F7D9554933028F4C8
:1009F0000C5F1F4F9FE399830DC0833631F083371F
:100A000071F0833509F059C021C0F80180818983D4
:100A10000E5F1F4F88248394912C530113C028012B
:100A2000F2E04F0E511CF801A080B18036FE03C0E9
:100A3000692D70E002C06FEF7FEFC5010E94A8072B
:100A40004C018201F32DFF773F2E16C0280122E0D2
:100A5000420E511CF801A080B18036FE03C0692D02
:100A600070E002C06FEF7FEFC5010E9496074C0156
:100A7000F32DF0683F2E820133FC1BC0822D90E0E5
:100A800088169906B0F4B60180E290E00E94B307A0
:100A90002A94F4CFF50137FC859137FE81915F01EF
:100AA000B60190E00E94B30721102A9421E0821A37
:100AB00091088114910471F7E8C0843611F08936E9
:100AC00041F5F80137FE07C0608171818281938111
:100AD0000C5F1F4F08C060817181072E000C880BCE
:100AE000990B0E5F1F4FF32DFF763F2E97FF09C026
:100AF00090958095709561957F4F8F4F9F4FF068CF
:100B00003F2E2AE030E0A3010E94EF07882E8618CE
:100B100045C0853731F4232D2F7EB22E2AE030E0F8
:100B200025C0932D997FB92E8F36C1F018F48835E2
:100B300079F0B5C0803719F0883721F0B0C0E92FBF
:100B4000E061BE2EB4FE0DC0FB2DF460BF2E09C0C7
:100B500034FE0AC0292F2660B22E06C028E030E0FD
:100B600005C020E130E002C020E132E0F801B7FE2C
:100B700007C060817181828193810C5F1F4F06C025
:100B80006081718180E090E00E5F1F4FA3010E94A1
:100B9000EF07882E8618FB2DFF773F2E36FE0DC0FF
:100BA000232D2E7FA22E891458F434FE0BC032FC64
:100BB00009C0832D8E7EA82E05C0B82CA32C03C09F
:100BC000B82C01C0B92CA4FE0FC0FE01E80DF11D28
:100BD0008081803321F49A2D997EA92E09C0A2FE2E
:100BE00006C0B394B39404C08A2D867809F0B394F8
:100BF000A3FC11C0A0FE06C0B21488F4280C922CED
:100C00009B180EC0B21460F4B60180E290E00E941E
:100C1000B307B394F7CFB21418F42B1802C0982C72
:100C2000212CA4FE10C0B60180E390E00E94B3071F
:100C3000A2FE17C0A1FC03C088E790E002C088E5CF
:100C400090E0B6010CC08A2D867859F0A1FE02C052
:100C50008BE201C080E2A7FC8DE2B60190E00E9429
:100C6000B307891438F4B60180E390E00E94B3071B
:100C70009A94F7CF8A94F301E80DF11D8081B601B3
:100C800090E00E94B3078110F5CF222009F442CEF4
:100C9000B60180E290E00E94B3072A94F6CFF601F5
:100CA0008681978102C08FEF9FEF2B96E2E10C9433
:100CB0009B080F931F93CF93DF93869F8001879F9D
:100CC000100D969F100D1124C8010E947506EC01AD
:100CD000009729F0A80160E070E00E94A107CE0112
:100CE000DF91CF911F910F9108950F931F93CF9391
:100CF000DF938230910510F482E090E0E09173027E
:100D0000F091740220E030E0A0E0B0E0309719F1FB
:100D1000408151810281138148175907C8F0841717
:100D2000950769F4109731F012960C931297139669
:100D30001C9327C0009373021093740222C02115E4
:100D4000310519F04217530718F49A01BD01EF015C
:100D5000DF01F801DBCF21153105F9F0281B390B34
:100D60002430310580F48A819B816115710521F061
:100D7000FB019383828304C0909374028093730277
:100D8000FE01329644C0FE01E20FF31F819391935E
:100D900022503109398328833AC020917102309161
:100DA0007202232B41F42091060130910701309308
:100DB00072022093710220910401309105012115E6
:100DC000310541F42DB73EB740910801509109011A
:100DD000241B350BE0917102F0917202E217F307C8
:100DE000A0F42E1B3F0B2817390778F0AC014E5F9B
:100DF0005F4F2417350748F04E0F5F1F5093720264
:100E0000409371028193919302C0E0E0F0E0CF0142
:100E1000DF91CF911F910F910895CF93DF930097AA
:100E200009F481C0FC01329713821282A0917302EF
:100E3000B0917402109781F420813181820F931F49
:100E400020917102309172022817390751F5F09301
:100E50007202E093710267C0ED0120E030E0CE172E
:100E6000DF0740F44A815B819E0141155105F1F095
:100E7000EA01F5CFD383C28340815181840F951F4E
:100E8000C817D90759F488819981840F951F029654
:100E9000918380838A819B8193838283211531058D
:100EA00029F4F0937402E09373023DC0E901FB83DF
:100EB000EA8349915991C40FD51FEC17FD0761F4DE
:100EC00080819181840F951F0296E901998388831F
:100ED000828193819B838A83E0E0F0E012968D917A
:100EE0009C911397009719F0FD01DC01F7CF8D91CC
:100EF0009C9111979D012E5F3F4F820F931F209170
:100F00007102309172022817390769F4309729F479
:100F1000109274021092730202C013821282B09374
:100F20007202A0937102DF91CF910895FC010590A8
:100F3000615070400110D8F7809590958E0F9F1FDB
:100F40000895DC0101C06D9341505040E0F70895D1
:100F5000FC016150704001900110D8F78095909588
:100F60008E0F9F1F08950F931F93CF93DF93FB0165
:100F7000238121FD03C08FEF9FEF2CC022FF16C0FD
:100F800046815781248135814217530744F4A0815B
:100F9000B1819D012F5F3F4F318320838C93268148
:100FA00037812F5F3F4F3783268314C08B01EC01BD
:100FB000FB010084F185E02D0995892BE1F6D8012C
:100FC00016968D919C911797019617969C938E93E8
:100FD0001697CE01DF91CF911F910F910895FA01DD
:100FE000AA27283051F1203181F1E8946F936E7F68
:100FF0006E5F7F4F8F4F9F4FAF4FB1E03ED0B4E059
:101000003CD0670F781F891F9A1FA11D680F791F99
:101010008A1F911DA11D6A0F711D811D911DA11DAA
:1010200020D009F468943F912AE0269F11243019BA
:10103000305D3193DEF6CF010895462F4770405D55
:101040004193B3E00FD0C9F7F6CF462F4F70405D04
:101050004A3318F0495D31FD4052419302D0A9F75F
:10106000EACFB4E0A6959795879577956795BA9559
:10107000C9F700976105710508959B01AC010A2E1F
:1010800006945795479537952795BA95C9F7620FF6
:10109000731F841F951FA01D0895052E97FB1EF436
:1010A00000940E94640857FD07D00E94B60807FC10
:1010B00003D04EF40C9464085095409530952195DA
:1010C0003F4F4F4F5F4F0895909580957095619574
:1010D0007F4F8F4F9F4F08950E94D808A59F900D76
:1010E000B49F900DA49F800D911D11240895B7FF0A
:1010F0000C946C080E946C08821B930B08952F922D
:101100003F924F925F926F927F928F929F92AF9297
:10111000BF92CF92DF92EF92FF920F931F93CF93E4
:10112000DF93CDB7DEB7CA1BDB0B0FB6F894DEBF7B
:101130000FBECDBF09942A88398848885F846E84A1
:101140007D848C849B84AA84B984C884DF80EE80EB
:10115000FD800C811B81AA81B981CE0FD11D0FB6F4
:10116000F894DEBF0FBECDBFED010895A1E21A2EA7
:10117000AA1BBB1BFD010DC0AA1FBB1FEE1FFF1F3B
:10118000A217B307E407F50720F0A21BB30BE40B8B
:10119000F50B661F771F881F991F1A9469F76095D2
:1011A0007095809590959B01AC01BD01CF0108958C
:1011B000A29FB001B39FC001A39F700D811D112498
:1011C000911DB29F700D811D1124911D0895F894F9
:0211D000FFCF4F
:1011D200010000000000750220000A204C45465420
:1011E20020000A20524947485420000A204E455503
:1011F2005452414C20000A20555020000A20444FEE
:10120200574E20005374617274696E6720535241C5
:101212004D20746573742E2E2E00577269746520EA
:101222007068617365206572726F723A20657874B6
:101232005F72616D5B2534645D203D20253032583C
:10124200202873686F756C642062652025303258DF
:10125200290A0052657472696576616C2070686152
:101262007365206572726F723A206578745F72617D
:101272006D5B2534645D203D202530325820287373
:10128200686F756C642062652025303258290A0027
:101292005352414D207465737420636F6D706C6599
:1012A2007465642077697468200A25346420657245
:1012B200726F727320696E2077726974652070682C
:1012C20061736520616E64200A2534642065727240
:1012D2006F727320696E2072657472696576616CD3
:1012E2002070686173650A0A0027524947485427EB
:1012F20020001B5B481B5B4A000A0A582061786980
:10130200733A202564000A5920617869733A2025CE
:1013120064000A526967687420536C6964657220BC
:101322002564000A4C65667420536C6964657220FA
:04133200256400002E
:00000001FF
