:100000000C9438000C9455000C9455000C94550039
:100010000C9455000C9455000C9455000C9455000C
:100020000C9455000C9455000C9455000C945500FC
:100030000C9455000C9455000C9455000C945500EC
:100040000C9455000C9455000C9455000C945500DC
:100050000C9455000C9455000C9455000C945500CC
:100060000C9455000C9455000C9455000C945500BC
:1000700011241FBECFEFD4E0DEBFCDBF11E0A0E062
:10008000B1E0E2E4FDE002C005900D92AA3FB107A5
:10009000D9F722E0AAEFB1E001C01D92A430B20767
:1000A000E1F70E9457000C949F060C9400008FE12A
:1000B00090E00E9477000E9484000E9420010E942C
:1000C0008A002FEF8FE791E0215080409040E1F7C8
:1000D00000C000C0F6CF5D9BFECF8CB908955F9B3A
:1000E000FECF8BB18AB18CB18FEF9FEF089590BD99
:1000F00089B988E18AB98EE880BD6FE670E08BE649
:1001000090E00E949F01089585B7806885BF80E2D6
:1001100080BF0895CF92DF92EF92FF920F931F93CB
:10012000CF93DF938AE091E00E9400020E948F014A
:100130007C010E949401C12CD12C00E010E0C0E2AF
:10014000D1E00E948F01F601F85E8083208128179C
:10015000A9F099279F938F931F922F93DF92CF92AD
:10016000DF93CF930E94EA010F5F1F4F8DB79EB7B9
:1001700008960FB6F8949EBF0FBE8DBF9FEFC91AA9
:10018000D90AC11488E0D806E1F6C7010E9494019B
:10019000C0E0D0E0E12CF12C0F2EF9E5CF2EF1E0FC
:1001A000DF2EF02D0E948F01FE01F85E20812817BE
:1001B000B1F099279F938F931F922F93DF93CF9343
:1001C000DF92CF920E94EA019FEFE91AF90A8DB7F8
:1001D0009EB708960FB6F8949EBF0FBE8DBF2196AE
:1001E000C11598E0D907F1F6FF92EF921F930F9394
:1001F00086E991E09F938F930E94EA010F900F9000
:100200000F900F900F900F90DF91CF911F910F9152
:10021000FF90EF90DF90CF9008958D9A8EB5886013
:100220008EBD8FB58E7F8FBD8FB58D7F8FBD8FB506
:1002300080648FBD1BBC1ABC8EB581608EBD0895D5
:100240000895CF93DF931F92CDB7DEB785B780684F
:1002500085BF80E280BF8091001489838981282F27
:10026000082E000C330B3F938F938FEE91E09F93FA
:100270008F930E94EA010F900F900F900F900F90B4
:10028000DF91CF9108958F929F92AF92BF92CF92BC
:10029000DF92EF92FF92CF93DF93EC016881798137
:1002A0008A819B81611571058105910521F464E2C4
:1002B00079ED8BE597E02DE133EF41E050E00E94CE
:1002C000050649015A019B01AC01A7EAB1E40E946D
:1002D00024066B017C01ACEEB4EFA50194010E94F1
:1002E0003206DC01CB018C0D9D1DAE1DBF1DB7FF7D
:1002F00003C00197A109B04888839983AA83BB836F
:100300009F77DF91CF91FF90EF90DF90CF90BF90DC
:10031000AF909F908F9008950E944301089580E0D0
:1003200091E00E9443010895A0E0B0E080930001B5
:1003300090930101A0930201B093030108950F93DC
:100340001F93CF93DF93009731F46115710519F472
:1003500080E090E03AC08B01EC016EE070E081E05B
:1003600090E00E941104FC01892B91F380E88383C3
:100370000115110571F01387028781E8838380914D
:10038000FA019091FB01892B21F4F093FB01E0939A
:10039000FA012097C9F0D187C08783818260838367
:1003A0008091FC019091FD01892B71F4F093FD0186
:1003B000E093FC018091FE019091FF01892B21F4D3
:1003C000F093FF01E093FE01CF01DF91CF911F91E8
:1003D0000F910895A0E0B0E0E0EFF1E00C94470643
:1003E000AE014B5F5F4FFA0161917191AF01809156
:1003F000FC019091FD010E943002E2E00C94630642
:100400000F931F93CF93DF93E091FC01F091FD01D7
:10041000238121FF1BC08C01D0E0C0E0F801819155
:100420008F016091FC017091FD01DB011896ED9147
:10043000FC911997882331F00995892B79F3DFEF27
:10044000CFEFECCF8AE00995892B19F08FEF9FEF62
:1004500002C08D2F9C2FDF91CF911F910F91089596
:10046000ABE0B0E0E6E3F2E00C9437066C017B0110
:100470008A01FC0117821682838181FFCCC1CE01E3
:1004800001963C01F6019381F70193FD859193FF5D
:1004900081917F01882309F4BAC1853239F493FD33
:1004A000859193FF81917F01853229F4B60190E017
:1004B0000E946B05E7CF912C212C312CFFE1F31525
:1004C000D8F08B3279F038F4803279F08332A1F4AD
:1004D000232D20611DC08D3261F0803369F4232DFE
:1004E000216016C0832D8260382EE32DE4603E2EFD
:1004F0002AC0F32DF8601DC037FC2DC020ED280F59
:100500002A3040F08E32B9F436FC81C1232D2064AC
:10051000322E19C036FE06C08AE0989E200D1124A6
:10052000922E11C0EAE02E9E200D1124222EF32DD2
:10053000F0623F2E08C08C3621F4832D8068382E5F
:1005400002C0883641F4F70193FD859193FF8191B4
:100550007F018111B3CF982F9F7D9554933028F45C
:100560000C5F1F4F9FE399830DC0833631F08337B3
:1005700071F0833509F059C021C0F8018081898369
:100580000E5F1F4F88248394912C530113C02801C0
:10059000F2E04F0E511CF801A080B18036FE03C07E
:1005A000692D70E002C06FEF7FEFC5010E9460050A
:1005B0004C018201F32DFF773F2E16C0280122E067
:1005C000420E511CF801A080B18036FE03C0692D97
:1005D00070E002C06FEF7FEFC5010E944E054C0135
:1005E000F32DF0683F2E820133FC1BC0822D90E07A
:1005F00088169906B0F4B60180E290E00E946B057F
:100600002A94F4CFF50137FC859137FE81915F0183
:10061000B60190E00E946B0521102A9421E0821A15
:1006200091088114910471F7E8C0843611F089367D
:1006300041F5F80137FE07C06081718182819381A5
:100640000C5F1F4F08C060817181072E000C880B62
:10065000990B0E5F1F4FF32DFF763F2E97FF09C0BA
:1006600090958095709561957F4F8F4F9F4FF06863
:100670003F2E2AE030E0A3010E94A705882E8618AD
:1006800045C0853731F4232D2F7EB22E2AE030E08D
:1006900025C0932D997FB92E8F36C1F018F4883577
:1006A00079F0B5C0803719F0883721F0B0C0E92F54
:1006B000E061BE2EB4FE0DC0FB2DF460BF2E09C05C
:1006C00034FE0AC0292F2660B22E06C028E030E092
:1006D00005C020E130E002C020E132E0F801B7FEC1
:1006E00007C060817181828193810C5F1F4F06C0BA
:1006F0006081718180E090E00E5F1F4FA3010E9436
:10070000A705882E8618FB2DFF773F2E36FE0DC0DD
:10071000232D2E7FA22E891458F434FE0BC032FCF8
:1007200009C0832D8E7EA82E05C0B82CA32C03C033
:10073000B82C01C0B92CA4FE0FC0FE01E80DF11DBC
:100740008081803321F49A2D997EA92E09C0A2FEC2
:1007500006C0B394B39404C08A2D867809F0B3948C
:10076000A3FC11C0A0FE06C0B21488F4280C922C81
:100770009B180EC0B21460F4B60180E290E00E94B3
:100780006B05B394F7CFB21418F42B1802C0982C51
:10079000212CA4FE10C0B60180E390E00E946B05FE
:1007A000A2FE17C0A1FC03C088E790E002C088E564
:1007B00090E0B6010CC08A2D867859F0A1FE02C0E7
:1007C0008BE201C080E2A7FC8DE2B60190E00E94BE
:1007D0006B05891438F4B60180E390E00E946B0544
:1007E0009A94F7CF8A94F301E80DF11D8081B60148
:1007F00090E00E946B058110F5CF222009F442CED3
:10080000B60180E290E00E946B052A94F6CFF601D3
:100810008681978102C08FEF9FEF2B96E2E10C94C7
:1008200053060F931F93CF93DF93869F8001879F7B
:10083000100D969F100D1124C8010E942D04EC018B
:10084000009729F0A80160E070E00E945905CE01F0
:10085000DF91CF911F910F9108950F931F93CF9325
:10086000DF938230910510F482E090E0E091020283
:10087000F091030220E030E0A0E0B0E0309719F101
:10088000408151810281138148175907C8F08417AC
:10089000950769F4109731F012960C9312971396FE
:1008A0001C9327C0009302021093030222C021155B
:1008B000310519F04217530718F49A01BD01EF01F1
:1008C000DF01F801DBCF21153105F9F0281B390BC9
:1008D0002430310580F48A819B816115710521F0F6
:1008E000FB019383828304C09093030280930202EE
:1008F000FE01329644C0FE01E20FF31F81939193F3
:1009000022503109398328833AC020910002309166
:100910000102232B41F4209106013091070130930D
:10092000010220930002209104013091050121155C
:10093000310541F42DB73EB74091080150910901AE
:10094000241B350BE0910002F0910102E217F3073E
:10095000A0F42E1B3F0B2817390778F0AC014E5F2F
:100960005F4F2417350748F04E0F5F1F5093010269
:10097000409300028193919302C0E0E0F0E0CF0148
:10098000DF91CF911F910F910895CF93DF9300973F
:1009900009F481C0FC01329713821282A0910202F5
:1009A000B0910302109781F420813181820F931F4F
:1009B00020910002309101022817390751F5F09378
:1009C0000102E093000267C0ED0120E030E0CE17A5
:1009D000DF0740F44A815B819E0141155105F1F02A
:1009E000EA01F5CFD383C28340815181840F951FE3
:1009F000C817D90759F488819981840F951F0296E9
:100A0000918380838A819B81938382832115310521
:100A100029F4F0930302E09302023DC0E901FB8355
:100A2000EA8349915991C40FD51FEC17FD0761F472
:100A300080819181840F951F0296E90199838883B3
:100A4000828193819B838A83E0E0F0E012968D910E
:100A50009C911397009719F0FD01DC01F7CF8D9160
:100A60009C9111979D012E5F3F4F820F931F209104
:100A70000002309101022817390769F4309729F4F0
:100A8000109203021092020202C013821282B093EB
:100A90000102A0930002DF91CF910895FC0105901F
:100AA000615070400110D8F7809590958E0F9F1F70
:100AB0000895DC0101C06D9341505040E0F7089566
:100AC000FC016150704001900110D8F7809590951D
:100AD0008E0F9F1F08950F931F93CF93DF93FB01FA
:100AE000238121FD03C08FEF9FEF2CC022FF16C092
:100AF00046815781248135814217530744F4A081F0
:100B0000B1819D012F5F3F4F318320838C932681DC
:100B100037812F5F3F4F3783268314C08B01EC0151
:100B2000FB010084F185E02D0995892BE1F6D801C0
:100B300016968D919C911797019617969C938E937C
:100B40001697CE01DF91CF911F910F910895FA0171
:100B5000AA27283051F1203181F1E8946F936E7FFC
:100B60006E5F7F4F8F4F9F4FAF4FB1E03ED0B4E0ED
:100B70003CD0670F781F891F9A1FA11D680F791F2E
:100B80008A1F911DA11D6A0F711D811D911DA11D3F
:100B900020D009F468943F912AE0269F112430194F
:100BA000305D3193DEF6CF010895462F4770405DEA
:100BB0004193B3E00FD0C9F7F6CF462F4F70405D99
:100BC0004A3318F0495D31FD4052419302D0A9F7F4
:100BD000EACFB4E0A6959795879577956795BA95EE
:100BE000C9F700976105710508959B01AC010A2EB4
:100BF00006945795479537952795BA95C9F7620F8B
:100C0000731F841F951FA01D0895052E97FB1EF4CA
:100C100000940E941C0657FD07D00E946E0607FC38
:100C200003D04EF40C941C065095409530952195B8
:100C30003F4F4F4F5F4F0895909580957095619508
:100C40007F4F8F4F9F4F08950E949006A59F900D54
:100C5000B49F900DA49F800D911D11240895B7FF9E
:100C60000C9424060E942406821B930B08952F9255
:100C70003F924F925F926F927F928F929F92AF922C
:100C8000BF92CF92DF92EF92FF920F931F93CF9379
:100C9000DF93CDB7DEB7CA1BDB0B0FB6F894DEBF10
:100CA0000FBECDBF09942A88398848885F846E8436
:100CB0007D848C849B84AA84B984C884DF80EE8080
:100CC000FD800C811B81AA81B981CE0FD11D0FB689
:100CD000F894DEBF0FBECDBFED010895A1E21A2E3C
:100CE000AA1BBB1BFD010DC0AA1FBB1FEE1FFF1FD0
:100CF000A217B307E407F50720F0A21BB30BE40B20
:100D0000F50B661F771F881F991F1A9469F7609566
:100D10007095809590959B01AC01BD01CF01089520
:100D2000A29FB001B39FC001A39F700D811D11242C
:100D3000911DB29F700D811D1124911D0895F8948D
:020D4000FFCFE3
:100D42000100000000000402200053746172746903
:100D52006E67205352414D20746573742E2E2E00FF
:100D62005772697465207068617365206572726F6D
:100D7200723A206578745F72616D5B2534645D2020
:100D82003D2025303258202873686F756C642062CC
:100D9200652025303258290A0052657472696576D9
:100DA200616C207068617365206572726F723A209F
:100DB2006578745F72616D5B2534645D203D20252A
:100DC200303258202873686F756C64206265202564
:100DD200303258290A005352414D207465737420F1
:100DE200636F6D706C657465642077697468200A3E
:100DF200253464206572726F727320696E20777277
:100E020069746520706861736520616E64200A25CB
:100E12003464206572726F727320696E2072657419
:100E220072696576616C2070686173650A0A0044B4
:0A0E32006174613A2025630A000094
:00000001FF
